{
  "contractName": "LandRegistry",
  "abi": [
    {
      "inputs": [],
      "payable": false,
      "stateMutability": "nonpayable",
      "type": "constructor"
    },
    {
      "constant": true,
      "inputs": [],
      "name": "totalRegistered",
      "outputs": [
        {
          "internalType": "uint256",
          "name": "",
          "type": "uint256"
        }
      ],
      "payable": false,
      "stateMutability": "view",
      "type": "function"
    },
    {
      "constant": true,
      "inputs": [
        {
          "internalType": "uint256",
          "name": "",
          "type": "uint256"
        }
      ],
      "name": "townShips",
      "outputs": [
        {
          "internalType": "uint256",
          "name": "id",
          "type": "uint256"
        },
        {
          "internalType": "uint256",
          "name": "townshipId",
          "type": "uint256"
        },
        {
          "internalType": "uint256",
          "name": "owner_nid",
          "type": "uint256"
        },
        {
          "internalType": "string",
          "name": "owner_name",
          "type": "string"
        },
        {
          "internalType": "string",
          "name": "owner_address",
          "type": "string"
        },
        {
          "internalType": "string",
          "name": "owner_father_name",
          "type": "string"
        },
        {
          "internalType": "string",
          "name": "owner_mother_name",
          "type": "string"
        },
        {
          "internalType": "string",
          "name": "created",
          "type": "string"
        }
      ],
      "payable": false,
      "stateMutability": "view",
      "type": "function"
    },
    {
      "constant": false,
      "inputs": [
        {
          "internalType": "uint256",
          "name": "townshipId",
          "type": "uint256"
        },
        {
          "internalType": "uint256",
          "name": "owner_nid",
          "type": "uint256"
        },
        {
          "internalType": "string",
          "name": "owner_name",
          "type": "string"
        },
        {
          "internalType": "string",
          "name": "owner_address",
          "type": "string"
        },
        {
          "internalType": "string",
          "name": "owner_father_name",
          "type": "string"
        },
        {
          "internalType": "string",
          "name": "owner_mother_name",
          "type": "string"
        },
        {
          "internalType": "string",
          "name": "created",
          "type": "string"
        }
      ],
      "name": "registerTownShip",
      "outputs": [],
      "payable": false,
      "stateMutability": "nonpayable",
      "type": "function"
    }
  ],
  "bytecode": "0x60806040526000805534801561001457600080fd5b50610a2a806100246000396000f3fe608060405234801561001057600080fd5b50600436106100415760003560e01c8063927416c014610046578063c192296014610060578063e54b730614610326575b600080fd5b61004e610568565b60408051918252519081900360200190f35b610324600480360360e081101561007657600080fd5b813591602081013591810190606081016040820135600160201b81111561009c57600080fd5b8201836020820111156100ae57600080fd5b803590602001918460018302840111600160201b831117156100cf57600080fd5b91908080601f0160208091040260200160405190810160405280939291908181526020018383808284376000920191909152509295949360208101935035915050600160201b81111561012157600080fd5b82018360208201111561013357600080fd5b803590602001918460018302840111600160201b8311171561015457600080fd5b91908080601f0160208091040260200160405190810160405280939291908181526020018383808284376000920191909152509295949360208101935035915050600160201b8111156101a657600080fd5b8201836020820111156101b857600080fd5b803590602001918460018302840111600160201b831117156101d957600080fd5b91908080601f0160208091040260200160405190810160405280939291908181526020018383808284376000920191909152509295949360208101935035915050600160201b81111561022b57600080fd5b82018360208201111561023d57600080fd5b803590602001918460018302840111600160201b8311171561025e57600080fd5b91908080601f0160208091040260200160405190810160405280939291908181526020018383808284376000920191909152509295949360208101935035915050600160201b8111156102b057600080fd5b8201836020820111156102c257600080fd5b803590602001918460018302840111600160201b831117156102e357600080fd5b91908080601f01602080910402602001604051908101604052809392919081815260200183838082843760009201919091525092955061056e945050505050565b005b6103436004803603602081101561033c57600080fd5b503561066c565b60405180898152602001888152602001878152602001806020018060200180602001806020018060200186810386528b818151815260200191508051906020019080838360005b838110156103a257818101518382015260200161038a565b50505050905090810190601f1680156103cf5780820380516001836020036101000a031916815260200191505b5086810385528a5181528a516020918201918c019080838360005b838110156104025781810151838201526020016103ea565b50505050905090810190601f16801561042f5780820380516001836020036101000a031916815260200191505b5086810384528951815289516020918201918b019080838360005b8381101561046257818101518382015260200161044a565b50505050905090810190601f16801561048f5780820380516001836020036101000a031916815260200191505b5086810383528851815288516020918201918a019080838360005b838110156104c25781810151838201526020016104aa565b50505050905090810190601f1680156104ef5780820380516001836020036101000a031916815260200191505b50868103825287518152875160209182019189019080838360005b8381101561052257818101518382015260200161050a565b50505050905090810190601f16801561054f5780820380516001836020036101000a031916815260200191505b509d505050505050505050505050505060405180910390f35b60005481565b600080546001908101808355604080516101008101825282815260208082018d81528284018d8152606084018d8152608085018d905260a085018c905260c085018b905260e085018a9052958852868352939096208251815595519486019490945590516002850155905180519193926105f09260038501929091019061095a565b506080820151805161060c91600484019160209091019061095a565b5060a0820151805161062891600584019160209091019061095a565b5060c0820151805161064491600684019160209091019061095a565b5060e0820151805161066091600784019160209091019061095a565b50505050505050505050565b60016020818152600092835260409283902080548184015460028084015460038501805489519881161561010002600019011692909204601f81018790048702880187019098528787529296919592949091908301828280156107105780601f106106e557610100808354040283529160200191610710565b820191906000526020600020905b8154815290600101906020018083116106f357829003601f168201915b5050505060048301805460408051602060026001851615610100026000190190941693909304601f81018490048402820184019092528181529495949350908301828280156107a05780601f10610775576101008083540402835291602001916107a0565b820191906000526020600020905b81548152906001019060200180831161078357829003601f168201915b5050505060058301805460408051602060026001851615610100026000190190941693909304601f81018490048402820184019092528181529495949350908301828280156108305780601f1061080557610100808354040283529160200191610830565b820191906000526020600020905b81548152906001019060200180831161081357829003601f168201915b5050505060068301805460408051602060026001851615610100026000190190941693909304601f81018490048402820184019092528181529495949350908301828280156108c05780601f10610895576101008083540402835291602001916108c0565b820191906000526020600020905b8154815290600101906020018083116108a357829003601f168201915b5050505060078301805460408051602060026001851615610100026000190190941693909304601f81018490048402820184019092528181529495949350908301828280156109505780601f1061092557610100808354040283529160200191610950565b820191906000526020600020905b81548152906001019060200180831161093357829003601f168201915b5050505050905088565b828054600181600116156101000203166002900490600052602060002090601f016020900481019282601f1061099b57805160ff19168380011785556109c8565b828001600101855582156109c8579182015b828111156109c85782518255916020019190600101906109ad565b506109d49291506109d8565b5090565b6109f291905b808211156109d457600081556001016109de565b9056fea265627a7a7231582028b020b3afede336ec5f2161d1c68498e56105ab19a4454b38e0a07e9148f1cf64736f6c63430005100032",
  "source": "pragma solidity >=0.5.0;\n\ncontract LandRegistry {\n  uint public totalRegistered = 0;\n  struct Township {\n    uint id;\n    uint townshipId;\n    uint owner_nid;\n    string owner_name;\n    string owner_address;\n    string owner_father_name;\n    string owner_mother_name;\n    string created;\n  }\n\n  mapping(uint => Township) public townShips;\n\n  constructor() public {\n      \n  }\n\n  function registerTownShip(\n    uint townshipId,\n    uint owner_nid,\n    string memory owner_name,\n    string memory owner_address,\n    string memory owner_father_name,\n    string memory owner_mother_name,\n    string memory created\n  ) public {\n    totalRegistered++;\n    townShips[totalRegistered] = Township(\n      totalRegistered,\n      townshipId,\n      owner_nid,\n      owner_name,\n      owner_address,\n      owner_father_name,\n      owner_mother_name,\n      created\n    );\n  }\n}",
  "sourcePath": "/Users/affanansari/Downloads/Land-registry-system-master/Smart Contract/contracts/LandRegistry.sol",
  "compiler": {
    "name": "solc",
    "version": "0.5.16+commit.9c3226ce.Emscripten.clang"
  },
  "schemaVersion": "3.1.0",
  "updatedAt": "2020-05-04T20:25:53.712Z",
  "networkType": "ethereum",
  "devdoc": {
    "methods": {}
  },
  "userdoc": {
    "methods": {}
  }
}