{
  "contractName": "LandRegistry",
  "abi": [
    {
      "inputs": [],
      "payable": false,
      "stateMutability": "nonpayable",
      "type": "constructor"
    },
    {
      "constant": true,
      "inputs": [],
      "name": "totalRegistered",
      "outputs": [
        {
          "internalType": "uint256",
          "name": "",
          "type": "uint256"
        }
      ],
      "payable": false,
      "stateMutability": "view",
      "type": "function"
    },
    {
      "constant": true,
      "inputs": [
        {
          "internalType": "uint256",
          "name": "",
          "type": "uint256"
        }
      ],
      "name": "townShips",
      "outputs": [
        {
          "internalType": "uint256",
          "name": "id",
          "type": "uint256"
        },
        {
          "internalType": "uint256",
          "name": "townshipId",
          "type": "uint256"
        },
        {
          "internalType": "uint256",
          "name": "owner_nid",
          "type": "uint256"
        },
        {
          "internalType": "string",
          "name": "owner_name",
          "type": "string"
        },
        {
          "internalType": "string",
          "name": "owner_address",
          "type": "string"
        },
        {
          "internalType": "string",
          "name": "owner_father_name",
          "type": "string"
        },
        {
          "internalType": "string",
          "name": "owner_mother_name",
          "type": "string"
        }
      ],
      "payable": false,
      "stateMutability": "view",
      "type": "function"
    },
    {
      "constant": false,
      "inputs": [
        {
          "internalType": "uint256",
          "name": "townshipId",
          "type": "uint256"
        },
        {
          "internalType": "uint256",
          "name": "owner_nid",
          "type": "uint256"
        },
        {
          "internalType": "string",
          "name": "owner_name",
          "type": "string"
        },
        {
          "internalType": "string",
          "name": "owner_address",
          "type": "string"
        },
        {
          "internalType": "string",
          "name": "owner_father_name",
          "type": "string"
        },
        {
          "internalType": "string",
          "name": "owner_mother_name",
          "type": "string"
        }
      ],
      "name": "registerTownShip",
      "outputs": [],
      "payable": false,
      "stateMutability": "nonpayable",
      "type": "function"
    }
  ],
  "bytecode": "0x60806040526000805534801561001457600080fd5b5061088a806100246000396000f3fe608060405234801561001057600080fd5b50600436106100415760003560e01c8063927416c014610046578063b1b0d9f614610060578063e54b7306146102a1575b600080fd5b61004e61047d565b60408051918252519081900360200190f35b61029f600480360360c081101561007657600080fd5b813591602081013591810190606081016040820135600160201b81111561009c57600080fd5b8201836020820111156100ae57600080fd5b803590602001918460018302840111600160201b831117156100cf57600080fd5b91908080601f0160208091040260200160405190810160405280939291908181526020018383808284376000920191909152509295949360208101935035915050600160201b81111561012157600080fd5b82018360208201111561013357600080fd5b803590602001918460018302840111600160201b8311171561015457600080fd5b91908080601f0160208091040260200160405190810160405280939291908181526020018383808284376000920191909152509295949360208101935035915050600160201b8111156101a657600080fd5b8201836020820111156101b857600080fd5b803590602001918460018302840111600160201b831117156101d957600080fd5b91908080601f0160208091040260200160405190810160405280939291908181526020018383808284376000920191909152509295949360208101935035915050600160201b81111561022b57600080fd5b82018360208201111561023d57600080fd5b803590602001918460018302840111600160201b8311171561025e57600080fd5b91908080601f016020809104026020016040519081016040528093929190818152602001838380828437600092019190915250929550610483945050505050565b005b6102be600480360360208110156102b757600080fd5b503561055c565b6040518088815260200187815260200186815260200180602001806020018060200180602001858103855289818151815260200191508051906020019080838360005b83811015610319578181015183820152602001610301565b50505050905090810190601f1680156103465780820380516001836020036101000a031916815260200191505b5085810384528851815288516020918201918a019080838360005b83811015610379578181015183820152602001610361565b50505050905090810190601f1680156103a65780820380516001836020036101000a031916815260200191505b50858103835287518152875160209182019189019080838360005b838110156103d95781810151838201526020016103c1565b50505050905090810190601f1680156104065780820380516001836020036101000a031916815260200191505b50858103825286518152865160209182019188019080838360005b83811015610439578181015183820152602001610421565b50505050905090810190601f1680156104665780820380516001836020036101000a031916815260200191505b509b50505050505050505050505060405180910390f35b60005481565b6000805460019081018083556040805160e08101825282815260208082018c81528284018c8152606084018c8152608085018c905260a085018b905260c085018a9052958852868352939096208251815595519486019490945590516002850155905180519193926104fd926003850192909101906107ba565b50608082015180516105199160048401916020909101906107ba565b5060a082015180516105359160058401916020909101906107ba565b5060c082015180516105519160068401916020909101906107ba565b505050505050505050565b60016020818152600092835260409283902080548184015460028084015460038501805489519881161561010002600019011692909204601f81018790048702880187019098528787529296919592949091908301828280156106005780601f106105d557610100808354040283529160200191610600565b820191906000526020600020905b8154815290600101906020018083116105e357829003601f168201915b5050505060048301805460408051602060026001851615610100026000190190941693909304601f81018490048402820184019092528181529495949350908301828280156106905780601f1061066557610100808354040283529160200191610690565b820191906000526020600020905b81548152906001019060200180831161067357829003601f168201915b5050505060058301805460408051602060026001851615610100026000190190941693909304601f81018490048402820184019092528181529495949350908301828280156107205780601f106106f557610100808354040283529160200191610720565b820191906000526020600020905b81548152906001019060200180831161070357829003601f168201915b5050505060068301805460408051602060026001851615610100026000190190941693909304601f81018490048402820184019092528181529495949350908301828280156107b05780601f10610785576101008083540402835291602001916107b0565b820191906000526020600020905b81548152906001019060200180831161079357829003601f168201915b5050505050905087565b828054600181600116156101000203166002900490600052602060002090601f016020900481019282601f106107fb57805160ff1916838001178555610828565b82800160010185558215610828579182015b8281111561082857825182559160200191906001019061080d565b50610834929150610838565b5090565b61085291905b80821115610834576000815560010161083e565b9056fea265627a7a72315820352e2c06b9faf046fa39bc8aa3bfa06bbb7e6845c8f8692435a717746aa9692364736f6c63430005100032",
  "source": "pragma solidity ^0.5.0;\n\ncontract LandRegistry {\n  uint public totalRegistered = 0;\n  struct Township {\n    uint id;\n    uint townshipId;\n    uint owner_nid;\n    string owner_name;\n    string owner_address;\n    string owner_father_name;\n    string owner_mother_name;\n  }\n\n  mapping(uint => Township) public townShips;\n\n  constructor() public {\n      \n  }\n\n  function registerTownShip(\n    uint townshipId,\n    uint owner_nid,\n    string memory owner_name,\n    string memory owner_address,\n    string memory owner_father_name,\n    string memory owner_mother_name\n  ) public {\n    totalRegistered++;\n    townShips[totalRegistered] = Township(\n      totalRegistered,\n      townshipId,\n      owner_nid,\n      owner_name,\n      owner_address,\n      owner_father_name,\n      owner_mother_name\n    );\n  }\n}",
  "sourcePath": "/Users/afaanansari/Desktop/blockchain/land register/Smart Contract/contracts/LandRegistry.sol",
  "compiler": {
    "name": "solc",
    "version": "0.5.16+commit.9c3226ce.Emscripten.clang"
  },
  "schemaVersion": "3.0.23",
  "updatedAt": "2020-02-25T03:51:16.486Z",
  "networkType": "ethereum",
  "devdoc": {
    "methods": {}
  },
  "userdoc": {
    "methods": {}
  }
}